{
  "fileName": "box.sol",
  "contractName": "Box",
  "source": "pragma solidity ^0.5.0;\n\ncontract Box {\n    uint256 private value;\n\n    // Emitted when the stored value changes\n    event ValueChanged(uint256 newValue);\n\n    // Stores a new value in the contract\n    function store(uint256 newValue) public {\n        value = newValue;\n        emit ValueChanged(newValue);\n    }\n\n    // Reads the last stored value\n    function retrieve() public view returns (uint256) {\n        return value;\n    }\n\n    // Increments the stored value by 1\n    function increment() public {\n        value = value + 1;\n        emit ValueChanged(value);\n    }\n\n    // Decrements the stored value by 1\n    function decrement() public {\n        value = value - 1;\n        emit ValueChanged(value);\n    }\n}\n",
  "sourcePath": "contracts/box.sol",
  "abi": [
    {
      "constant": false,
      "inputs": [],
      "name": "decrement",
      "outputs": [],
      "payable": false,
      "stateMutability": "nonpayable",
      "type": "function"
    },
    {
      "constant": true,
      "inputs": [],
      "name": "retrieve",
      "outputs": [
        {
          "name": "",
          "type": "uint256"
        }
      ],
      "payable": false,
      "stateMutability": "view",
      "type": "function"
    },
    {
      "constant": false,
      "inputs": [
        {
          "name": "newValue",
          "type": "uint256"
        }
      ],
      "name": "store",
      "outputs": [],
      "payable": false,
      "stateMutability": "nonpayable",
      "type": "function"
    },
    {
      "constant": false,
      "inputs": [],
      "name": "increment",
      "outputs": [],
      "payable": false,
      "stateMutability": "nonpayable",
      "type": "function"
    },
    {
      "anonymous": false,
      "inputs": [
        {
          "indexed": false,
          "name": "newValue",
          "type": "uint256"
        }
      ],
      "name": "ValueChanged",
      "type": "event"
    }
  ],
  "bytecode": "0x608060405234801561001057600080fd5b506101cf806100206000396000f3fe6080604052600436106100615763ffffffff7c01000000000000000000000000000000000000000000000000000000006000350416632baeceb781146100665780632e64cec11461007d5780636057361d146100a4578063d09de08a146100ce575b600080fd5b34801561007257600080fd5b5061007b6100e3565b005b34801561008957600080fd5b50610092610123565b60408051918252519081900360200190f35b3480156100b057600080fd5b5061007b600480360360208110156100c757600080fd5b5035610129565b3480156100da57600080fd5b5061007b610164565b60008054600019019081905560408051918252517f93fe6d397c74fdf1402a8b72e47b68512f0510d7b98a4bc4cbdf6ac7108b3c599181900360200190a1565b60005490565b60008190556040805182815290517f93fe6d397c74fdf1402a8b72e47b68512f0510d7b98a4bc4cbdf6ac7108b3c599181900360200190a150565b600080546001019081905560408051918252517f93fe6d397c74fdf1402a8b72e47b68512f0510d7b98a4bc4cbdf6ac7108b3c599181900360200190a156fea165627a7a72305820178016b8db57ada2a1c6a216d100e35e69c3d84310491050603ac160069a67910029",
  "compiler": {
    "name": "solc",
    "version": "0.5.0+commit.1d4f565a.Emscripten.clang",
    "optimizer": {
      "enabled": true,
      "runs": 200
    },
    "evmVersion": "byzantium"
  }
}